Inspecting tx:  938cc18e618967d787897bbc64b9a8d201b94ec7c69b1a9949eab0433ba5cdf8
slpData:  {
  tokenType: 1,
  txType: 'GENESIS',
  ticker: 'Bubb2',
  name: 'the new bubbles!',
  tokenId: '938cc18e618967d787897bbc64b9a8d201b94ec7c69b1a9949eab0433ba5cdf8',
  documentUri: '',
  documentHash: '',
  decimals: 5,
  mintBatonVout: 2,
  qty: BigNumber { s: 1, e: 9, c: [ 4354534534 ] }
}
height:  543614
txData:  {
  txid: '938cc18e618967d787897bbc64b9a8d201b94ec7c69b1a9949eab0433ba5cdf8',
  hash: '938cc18e618967d787897bbc64b9a8d201b94ec7c69b1a9949eab0433ba5cdf8',
  version: 1,
  size: 324,
  locktime: 543613,
  vin: [
    {
      txid: '89f4a12d7de52e3d117ef67e9e9be45eb9a1432afee61d99efc3576df2c7fab2',
      vout: 2,
      scriptSig: [Object],
      sequence: 4294967294,
      address: 'bitcoincash:qr2gjvkfpx5m43wu7rl8fvv47m90lry3wg77ydqhvs',
      value: 0.00057683
    }
  ],
  vout: [
    { value: 0, n: 0, scriptPubKey: [Object] },
    { value: 0.00000546, n: 1, scriptPubKey: [Object] },
    { value: 0.00000546, n: 2, scriptPubKey: [Object] },
    { value: 0.00056266, n: 3, scriptPubKey: [Object] }
  ],
  hex: '0100000001b2fac7f26d57c3ef991de6fe2a43a1b95ee49b9e7ef67e113d2ee57d2da1f489020000006a47304402205af3bd1cd3bb0555e9950c80f0c4a320eaf1027b3ab23467f407dcc4e3b0a062022033bea27acd19e074f85a4c88a905d93efc5a3733ee8f8cb2d52f9de23cefc205412102b49855960adae49a94e8be72a26007a08f4d807ce699387dfbdd89d7fea5c853feffffff040000000000000000386a04534c500001010747454e4553495305427562623210746865206e657720627562626c6573214c004c00010501020800000001038cec8622020000000000001976a9147a92bbeb46c32fa14c339dcf09aea12a2f6d5ef688ac22020000000000001976a91493e503186a2430c839700ede8be2cea4430adc3888accadb0000000000001976a91424f6f06da804d6b59f57350cccf33df5bfc9647788ac7d4b0800',
  blockhash: '00000000000000000140f0d813052da59c811a936494a8d8b2d60b215d19e3dc',
  confirmations: 163027,
  time: 1534391953,
  blocktime: 1534391953,
  isValidSLPTx: false,
  tokenTxType: 'GENESIS',
  tokenId: '938cc18e618967d787897bbc64b9a8d201b94ec7c69b1a9949eab0433ba5cdf8',
  tokenTicker: 'Bubb2',
  tokenName: 'the new bubbles!',
  tokenDecimals: 5,
  tokenUri: '',
  tokenDocHash: ''
}
txData: {
  "txid": "938cc18e618967d787897bbc64b9a8d201b94ec7c69b1a9949eab0433ba5cdf8",
  "hash": "938cc18e618967d787897bbc64b9a8d201b94ec7c69b1a9949eab0433ba5cdf8",
  "version": 1,
  "size": 324,
  "locktime": 543613,
  "vin": [
    {
      "txid": "89f4a12d7de52e3d117ef67e9e9be45eb9a1432afee61d99efc3576df2c7fab2",
      "vout": 2,
      "scriptSig": {
        "asm": "304402205af3bd1cd3bb0555e9950c80f0c4a320eaf1027b3ab23467f407dcc4e3b0a062022033bea27acd19e074f85a4c88a905d93efc5a3733ee8f8cb2d52f9de23cefc205[ALL|FORKID] 02b49855960adae49a94e8be72a26007a08f4d807ce699387dfbdd89d7fea5c853",
        "hex": "47304402205af3bd1cd3bb0555e9950c80f0c4a320eaf1027b3ab23467f407dcc4e3b0a062022033bea27acd19e074f85a4c88a905d93efc5a3733ee8f8cb2d52f9de23cefc205412102b49855960adae49a94e8be72a26007a08f4d807ce699387dfbdd89d7fea5c853"
      },
      "sequence": 4294967294,
      "address": "bitcoincash:qr2gjvkfpx5m43wu7rl8fvv47m90lry3wg77ydqhvs",
      "value": 0.00057683
    }
  ],
  "vout": [
    {
      "value": 0,
      "n": 0,
      "scriptPubKey": {
        "asm": "OP_RETURN 5262419 1 47454e45534953 4275626232 746865206e657720627562626c657321 0 0 5 2 00000001038cec86",
        "hex": "6a04534c500001010747454e4553495305427562623210746865206e657720627562626c6573214c004c00010501020800000001038cec86",
        "type": "nulldata"
      }
    },
    {
      "value": 0.00000546,
      "n": 1,
      "scriptPubKey": {
        "asm": "OP_DUP OP_HASH160 7a92bbeb46c32fa14c339dcf09aea12a2f6d5ef6 OP_EQUALVERIFY OP_CHECKSIG",
        "hex": "76a9147a92bbeb46c32fa14c339dcf09aea12a2f6d5ef688ac",
        "reqSigs": 1,
        "type": "pubkeyhash",
        "addresses": [
          "bitcoincash:qpaf9wltgmpjlg2vxwwu7zdw5y4z7m277ckxn8cufl"
        ]
      }
    },
    {
      "value": 0.00000546,
      "n": 2,
      "scriptPubKey": {
        "asm": "OP_DUP OP_HASH160 93e503186a2430c839700ede8be2cea4430adc38 OP_EQUALVERIFY OP_CHECKSIG",
        "hex": "76a91493e503186a2430c839700ede8be2cea4430adc3888ac",
        "reqSigs": 1,
        "type": "pubkeyhash",
        "addresses": [
          "bitcoincash:qzf72qccdgjrpjpewq8dazlze6jyxzku8q3cauna4t"
        ]
      }
    },
    {
      "value": 0.00056266,
      "n": 3,
      "scriptPubKey": {
        "asm": "OP_DUP OP_HASH160 24f6f06da804d6b59f57350cccf33df5bfc96477 OP_EQUALVERIFY OP_CHECKSIG",
        "hex": "76a91424f6f06da804d6b59f57350cccf33df5bfc9647788ac",
        "reqSigs": 1,
        "type": "pubkeyhash",
        "addresses": [
          "bitcoincash:qqj0durd4qzdddvl2u6sen8n8h6mljtywugqctt9km"
        ]
      }
    }
  ],
  "hex": "0100000001b2fac7f26d57c3ef991de6fe2a43a1b95ee49b9e7ef67e113d2ee57d2da1f489020000006a47304402205af3bd1cd3bb0555e9950c80f0c4a320eaf1027b3ab23467f407dcc4e3b0a062022033bea27acd19e074f85a4c88a905d93efc5a3733ee8f8cb2d52f9de23cefc205412102b49855960adae49a94e8be72a26007a08f4d807ce699387dfbdd89d7fea5c853feffffff040000000000000000386a04534c500001010747454e4553495305427562623210746865206e657720627562626c6573214c004c00010501020800000001038cec8622020000000000001976a9147a92bbeb46c32fa14c339dcf09aea12a2f6d5ef688ac22020000000000001976a91493e503186a2430c839700ede8be2cea4430adc3888accadb0000000000001976a91424f6f06da804d6b59f57350cccf33df5bfc9647788ac7d4b0800",
  "blockhash": "00000000000000000140f0d813052da59c811a936494a8d8b2d60b215d19e3dc",
  "confirmations": 163027,
  "time": 1534391953,
  "blocktime": 1534391953,
  "isValidSLPTx": false,
  "tokenTxType": "GENESIS",
  "tokenId": "938cc18e618967d787897bbc64b9a8d201b94ec7c69b1a9949eab0433ba5cdf8",
  "tokenTicker": "Bubb2",
  "tokenName": "the new bubbles!",
  "tokenDecimals": 5,
  "tokenUri": "",
  "tokenDocHash": ""
}
Genesis tx processed: 938cc18e618967d787897bbc64b9a8d201b94ec7c69b1a9949eab0433ba5cdf8
Inspecting tx:  ee9d3cf5153599c134147e3fac9844c68e216843f4452a1ce15a29452af6db34
slpData:  {
  tokenType: 1,
  txType: 'MINT',
  tokenId: '938cc18e618967d787897bbc64b9a8d201b94ec7c69b1a9949eab0433ba5cdf8',
  mintBatonVout: 2,
  qty: BigNumber { s: 1, e: 5, c: [ 234123 ] }
}
height:  543614
txData:  {
  txid: 'ee9d3cf5153599c134147e3fac9844c68e216843f4452a1ce15a29452af6db34',
  hash: 'ee9d3cf5153599c134147e3fac9844c68e216843f4452a1ce15a29452af6db34',
  version: 1,
  size: 473,
  locktime: 543613,
  vin: [
    {
      txid: '938cc18e618967d787897bbc64b9a8d201b94ec7c69b1a9949eab0433ba5cdf8',
      vout: 3,
      scriptSig: [Object],
      sequence: 4294967294,
      address: 'bitcoincash:qqj0durd4qzdddvl2u6sen8n8h6mljtywugqctt9km',
      value: 0.00056266
    },
    {
      txid: '938cc18e618967d787897bbc64b9a8d201b94ec7c69b1a9949eab0433ba5cdf8',
      vout: 2,
      scriptSig: [Object],
      sequence: 4294967294,
      address: 'bitcoincash:qzf72qccdgjrpjpewq8dazlze6jyxzku8q3cauna4t',
      value: 0.00000546
    }
  ],
  vout: [
    { value: 0, n: 0, scriptPubKey: [Object] },
    { value: 0.00000546, n: 1, scriptPubKey: [Object] },
    { value: 0.00000546, n: 2, scriptPubKey: [Object] },
    { value: 0.00054848, n: 3, scriptPubKey: [Object] }
  ],
  hex: '0100000002f8cda53b43b0ea49991a9bc6c74eb901d2a8b964bc7b8987d76789618ec18c93030000006b483045022100ac43a871e0f84787001db745e4801b789fd9cd7efa247727ebb5c0c7b66d597302205316328b6501759e9a15ec65202219a433172d153f9f1b68f65f3a63494ba6f041210345a5f5dd11c987b346c18c245f0df6d305369984b9b3c7ba465c29875466e374fefffffff8cda53b43b0ea49991a9bc6c74eb901d2a8b964bc7b8987d76789618ec18c93020000006a47304402202ce2d9d63bc6ab7765d267540fd3429bf7a8d1b50e975391fff3a4506289461a02205daf3f761a9b02d141f22136a6fe019062182c9da1b1d3a5245ff745f1236e45412102c00b05bc633a48e074bc54dd195b19a470ad6252ac8d306c82a2bd729c1c4c69feffffff040000000000000000396a04534c50000101044d494e5420938cc18e618967d787897bbc64b9a8d201b94ec7c69b1a9949eab0433ba5cdf8010208000000000003928b22020000000000001976a9141272884e6bd20c4661b5a052f874ff9a14c925b288ac22020000000000001976a914d1eaebf8d1face5bd866e36bd94f43e2ffceef7188ac40d60000000000001976a91417178e31b3e468c0d98d57be07bc907bf94d1fdb88ac7d4b0800',
  blockhash: '00000000000000000140f0d813052da59c811a936494a8d8b2d60b215d19e3dc',
  confirmations: 163027,
  time: 1534391953,
  blocktime: 1534391953,
  isValidSLPTx: false,
  tokenTxType: 'MINT',
  tokenId: '938cc18e618967d787897bbc64b9a8d201b94ec7c69b1a9949eab0433ba5cdf8',
  tokenTicker: 'Bubb2',
  tokenName: 'the new bubbles!',
  tokenDecimals: 5,
  tokenUri: '',
  tokenDocHash: ''
}
txData: {
  "txid": "ee9d3cf5153599c134147e3fac9844c68e216843f4452a1ce15a29452af6db34",
  "hash": "ee9d3cf5153599c134147e3fac9844c68e216843f4452a1ce15a29452af6db34",
  "version": 1,
  "size": 473,
  "locktime": 543613,
  "vin": [
    {
      "txid": "938cc18e618967d787897bbc64b9a8d201b94ec7c69b1a9949eab0433ba5cdf8",
      "vout": 3,
      "scriptSig": {
        "asm": "3045022100ac43a871e0f84787001db745e4801b789fd9cd7efa247727ebb5c0c7b66d597302205316328b6501759e9a15ec65202219a433172d153f9f1b68f65f3a63494ba6f0[ALL|FORKID] 0345a5f5dd11c987b346c18c245f0df6d305369984b9b3c7ba465c29875466e374",
        "hex": "483045022100ac43a871e0f84787001db745e4801b789fd9cd7efa247727ebb5c0c7b66d597302205316328b6501759e9a15ec65202219a433172d153f9f1b68f65f3a63494ba6f041210345a5f5dd11c987b346c18c245f0df6d305369984b9b3c7ba465c29875466e374"
      },
      "sequence": 4294967294,
      "address": "bitcoincash:qqj0durd4qzdddvl2u6sen8n8h6mljtywugqctt9km",
      "value": 0.00056266
    },
    {
      "txid": "938cc18e618967d787897bbc64b9a8d201b94ec7c69b1a9949eab0433ba5cdf8",
      "vout": 2,
      "scriptSig": {
        "asm": "304402202ce2d9d63bc6ab7765d267540fd3429bf7a8d1b50e975391fff3a4506289461a02205daf3f761a9b02d141f22136a6fe019062182c9da1b1d3a5245ff745f1236e45[ALL|FORKID] 02c00b05bc633a48e074bc54dd195b19a470ad6252ac8d306c82a2bd729c1c4c69",
        "hex": "47304402202ce2d9d63bc6ab7765d267540fd3429bf7a8d1b50e975391fff3a4506289461a02205daf3f761a9b02d141f22136a6fe019062182c9da1b1d3a5245ff745f1236e45412102c00b05bc633a48e074bc54dd195b19a470ad6252ac8d306c82a2bd729c1c4c69"
      },
      "sequence": 4294967294,
      "address": "bitcoincash:qzf72qccdgjrpjpewq8dazlze6jyxzku8q3cauna4t",
      "value": 0.00000546
    }
  ],
  "vout": [
    {
      "value": 0,
      "n": 0,
      "scriptPubKey": {
        "asm": "OP_RETURN 5262419 1 1414416717 938cc18e618967d787897bbc64b9a8d201b94ec7c69b1a9949eab0433ba5cdf8 2 000000000003928b",
        "hex": "6a04534c50000101044d494e5420938cc18e618967d787897bbc64b9a8d201b94ec7c69b1a9949eab0433ba5cdf8010208000000000003928b",
        "type": "nulldata"
      }
    },
    {
      "value": 0.00000546,
      "n": 1,
      "scriptPubKey": {
        "asm": "OP_DUP OP_HASH160 1272884e6bd20c4661b5a052f874ff9a14c925b2 OP_EQUALVERIFY OP_CHECKSIG",
        "hex": "76a9141272884e6bd20c4661b5a052f874ff9a14c925b288ac",
        "reqSigs": 1,
        "type": "pubkeyhash",
        "addresses": [
          "bitcoincash:qqf89zzwd0fqc3npkks997r5l7dpfjf9kgx2rqu500"
        ]
      }
    },
    {
      "value": 0.00000546,
      "n": 2,
      "scriptPubKey": {
        "asm": "OP_DUP OP_HASH160 d1eaebf8d1face5bd866e36bd94f43e2ffceef71 OP_EQUALVERIFY OP_CHECKSIG",
        "hex": "76a914d1eaebf8d1face5bd866e36bd94f43e2ffceef7188ac",
        "reqSigs": 1,
        "type": "pubkeyhash",
        "addresses": [
          "bitcoincash:qrg746lc68avuk7cvm3khk20g030lnh0wy5h2k2fqr"
        ]
      }
    },
    {
      "value": 0.00054848,
      "n": 3,
      "scriptPubKey": {
        "asm": "OP_DUP OP_HASH160 17178e31b3e468c0d98d57be07bc907bf94d1fdb OP_EQUALVERIFY OP_CHECKSIG",
        "hex": "76a91417178e31b3e468c0d98d57be07bc907bf94d1fdb88ac",
        "reqSigs": 1,
        "type": "pubkeyhash",
        "addresses": [
          "bitcoincash:qqt30r33k0jx3sxe34tmupaujpaljnglmvqgrrfp2x"
        ]
      }
    }
  ],
  "hex": "0100000002f8cda53b43b0ea49991a9bc6c74eb901d2a8b964bc7b8987d76789618ec18c93030000006b483045022100ac43a871e0f84787001db745e4801b789fd9cd7efa247727ebb5c0c7b66d597302205316328b6501759e9a15ec65202219a433172d153f9f1b68f65f3a63494ba6f041210345a5f5dd11c987b346c18c245f0df6d305369984b9b3c7ba465c29875466e374fefffffff8cda53b43b0ea49991a9bc6c74eb901d2a8b964bc7b8987d76789618ec18c93020000006a47304402202ce2d9d63bc6ab7765d267540fd3429bf7a8d1b50e975391fff3a4506289461a02205daf3f761a9b02d141f22136a6fe019062182c9da1b1d3a5245ff745f1236e45412102c00b05bc633a48e074bc54dd195b19a470ad6252ac8d306c82a2bd729c1c4c69feffffff040000000000000000396a04534c50000101044d494e5420938cc18e618967d787897bbc64b9a8d201b94ec7c69b1a9949eab0433ba5cdf8010208000000000003928b22020000000000001976a9141272884e6bd20c4661b5a052f874ff9a14c925b288ac22020000000000001976a914d1eaebf8d1face5bd866e36bd94f43e2ffceef7188ac40d60000000000001976a91417178e31b3e468c0d98d57be07bc907bf94d1fdb88ac7d4b0800",
  "blockhash": "00000000000000000140f0d813052da59c811a936494a8d8b2d60b215d19e3dc",
  "confirmations": 163027,
  "time": 1534391953,
  "blocktime": 1534391953,
  "isValidSLPTx": false,
  "tokenTxType": "MINT",
  "tokenId": "938cc18e618967d787897bbc64b9a8d201b94ec7c69b1a9949eab0433ba5cdf8",
  "tokenTicker": "Bubb2",
  "tokenName": "the new bubbles!",
  "tokenDecimals": 5,
  "tokenUri": "",
  "tokenDocHash": ""
}
Mint tx
Mint data: {
  "slpData": {
    "tokenType": 1,
    "txType": "MINT",
    "tokenId": "938cc18e618967d787897bbc64b9a8d201b94ec7c69b1a9949eab0433ba5cdf8",
    "mintBatonVout": 2,
    "qty": "234123"
  },
  "blockHeight": 543614,
  "txData": {
    "txid": "ee9d3cf5153599c134147e3fac9844c68e216843f4452a1ce15a29452af6db34",
    "hash": "ee9d3cf5153599c134147e3fac9844c68e216843f4452a1ce15a29452af6db34",
    "version": 1,
    "size": 473,
    "locktime": 543613,
    "vin": [
      {
        "txid": "938cc18e618967d787897bbc64b9a8d201b94ec7c69b1a9949eab0433ba5cdf8",
        "vout": 3,
        "scriptSig": {
          "asm": "3045022100ac43a871e0f84787001db745e4801b789fd9cd7efa247727ebb5c0c7b66d597302205316328b6501759e9a15ec65202219a433172d153f9f1b68f65f3a63494ba6f0[ALL|FORKID] 0345a5f5dd11c987b346c18c245f0df6d305369984b9b3c7ba465c29875466e374",
          "hex": "483045022100ac43a871e0f84787001db745e4801b789fd9cd7efa247727ebb5c0c7b66d597302205316328b6501759e9a15ec65202219a433172d153f9f1b68f65f3a63494ba6f041210345a5f5dd11c987b346c18c245f0df6d305369984b9b3c7ba465c29875466e374"
        },
        "sequence": 4294967294,
        "address": "bitcoincash:qqj0durd4qzdddvl2u6sen8n8h6mljtywugqctt9km",
        "value": 0.00056266
      },
      {
        "txid": "938cc18e618967d787897bbc64b9a8d201b94ec7c69b1a9949eab0433ba5cdf8",
        "vout": 2,
        "scriptSig": {
          "asm": "304402202ce2d9d63bc6ab7765d267540fd3429bf7a8d1b50e975391fff3a4506289461a02205daf3f761a9b02d141f22136a6fe019062182c9da1b1d3a5245ff745f1236e45[ALL|FORKID] 02c00b05bc633a48e074bc54dd195b19a470ad6252ac8d306c82a2bd729c1c4c69",
          "hex": "47304402202ce2d9d63bc6ab7765d267540fd3429bf7a8d1b50e975391fff3a4506289461a02205daf3f761a9b02d141f22136a6fe019062182c9da1b1d3a5245ff745f1236e45412102c00b05bc633a48e074bc54dd195b19a470ad6252ac8d306c82a2bd729c1c4c69"
        },
        "sequence": 4294967294,
        "address": "bitcoincash:qzf72qccdgjrpjpewq8dazlze6jyxzku8q3cauna4t",
        "value": 0.00000546
      }
    ],
    "vout": [
      {
        "value": 0,
        "n": 0,
        "scriptPubKey": {
          "asm": "OP_RETURN 5262419 1 1414416717 938cc18e618967d787897bbc64b9a8d201b94ec7c69b1a9949eab0433ba5cdf8 2 000000000003928b",
          "hex": "6a04534c50000101044d494e5420938cc18e618967d787897bbc64b9a8d201b94ec7c69b1a9949eab0433ba5cdf8010208000000000003928b",
          "type": "nulldata"
        }
      },
      {
        "value": 0.00000546,
        "n": 1,
        "scriptPubKey": {
          "asm": "OP_DUP OP_HASH160 1272884e6bd20c4661b5a052f874ff9a14c925b2 OP_EQUALVERIFY OP_CHECKSIG",
          "hex": "76a9141272884e6bd20c4661b5a052f874ff9a14c925b288ac",
          "reqSigs": 1,
          "type": "pubkeyhash",
          "addresses": [
            "bitcoincash:qqf89zzwd0fqc3npkks997r5l7dpfjf9kgx2rqu500"
          ]
        }
      },
      {
        "value": 0.00000546,
        "n": 2,
        "scriptPubKey": {
          "asm": "OP_DUP OP_HASH160 d1eaebf8d1face5bd866e36bd94f43e2ffceef71 OP_EQUALVERIFY OP_CHECKSIG",
          "hex": "76a914d1eaebf8d1face5bd866e36bd94f43e2ffceef7188ac",
          "reqSigs": 1,
          "type": "pubkeyhash",
          "addresses": [
            "bitcoincash:qrg746lc68avuk7cvm3khk20g030lnh0wy5h2k2fqr"
          ]
        }
      },
      {
        "value": 0.00054848,
        "n": 3,
        "scriptPubKey": {
          "asm": "OP_DUP OP_HASH160 17178e31b3e468c0d98d57be07bc907bf94d1fdb OP_EQUALVERIFY OP_CHECKSIG",
          "hex": "76a91417178e31b3e468c0d98d57be07bc907bf94d1fdb88ac",
          "reqSigs": 1,
          "type": "pubkeyhash",
          "addresses": [
            "bitcoincash:qqt30r33k0jx3sxe34tmupaujpaljnglmvqgrrfp2x"
          ]
        }
      }
    ],
    "hex": "0100000002f8cda53b43b0ea49991a9bc6c74eb901d2a8b964bc7b8987d76789618ec18c93030000006b483045022100ac43a871e0f84787001db745e4801b789fd9cd7efa247727ebb5c0c7b66d597302205316328b6501759e9a15ec65202219a433172d153f9f1b68f65f3a63494ba6f041210345a5f5dd11c987b346c18c245f0df6d305369984b9b3c7ba465c29875466e374fefffffff8cda53b43b0ea49991a9bc6c74eb901d2a8b964bc7b8987d76789618ec18c93020000006a47304402202ce2d9d63bc6ab7765d267540fd3429bf7a8d1b50e975391fff3a4506289461a02205daf3f761a9b02d141f22136a6fe019062182c9da1b1d3a5245ff745f1236e45412102c00b05bc633a48e074bc54dd195b19a470ad6252ac8d306c82a2bd729c1c4c69feffffff040000000000000000396a04534c50000101044d494e5420938cc18e618967d787897bbc64b9a8d201b94ec7c69b1a9949eab0433ba5cdf8010208000000000003928b22020000000000001976a9141272884e6bd20c4661b5a052f874ff9a14c925b288ac22020000000000001976a914d1eaebf8d1face5bd866e36bd94f43e2ffceef7188ac40d60000000000001976a91417178e31b3e468c0d98d57be07bc907bf94d1fdb88ac7d4b0800",
    "blockhash": "00000000000000000140f0d813052da59c811a936494a8d8b2d60b215d19e3dc",
    "confirmations": 163027,
    "time": 1534391953,
    "blocktime": 1534391953,
    "isValidSLPTx": false,
    "tokenTxType": "MINT",
    "tokenId": "938cc18e618967d787897bbc64b9a8d201b94ec7c69b1a9949eab0433ba5cdf8",
    "tokenTicker": "Bubb2",
    "tokenName": "the new bubbles!",
    "tokenDecimals": 5,
    "tokenUri": "",
    "tokenDocHash": ""
  }
}
